:1000000000500020B5130008FD130008FD13000880
:10001000FD130008FD130008FD1300080000000098
:10002000000000000000000000000000FD130008B8
:10003000FD13000800000000FD130008FD13000878
:10004000FD130008FD130008FD130008FD13000850
:10005000FD130008FD130008FD130008FD13000840
:10006000FD130008FD130008FD130008FD13000830
:10007000FD130008FD130008FD130008FD13000820
:10008000FD130008FD130008FD130008FD13000810
:10009000FD130008FD130008FD130008FD13000800
:1000A000FD130008FD130008FD130008FD130008F0
:1000B000FD130008FD130008FD130008FD130008E0
:1000C000FD130008FD130008FD130008FD130008D0
:1000D000FD130008FD130008FD130008FD130008C0
:1000E000FD130008FD130008FD13000800000000C8
:1000F0000000000000000000000000000000000000
:1001000000000000000000005FF808F1134B002B16
:1001100008BF114B9D46A3F5803A00218B460F4640
:100120001148124A121A01F0C3F90D4B002B00D0EE
:1001300098470C4B002B00D098470020002104006A
:100140000D000B4801F05CF901F08AF9200029004C
:1001500000F010F801F05AF900000800000000005B
:1001600000000000000000005C0400207804002073
:100170002D14000880B483B000AF0F4A0E4B9B696A
:1001800043F0100393610D4B4FF440125A600B4B38
:100190004FF40052DA6000237B6002E07B68013399
:1001A0007B607B68064A9342F8DD044A034BDB68B8
:1001B00083F40053D360EEE70010024000100140CA
:1001C0003F420F0080B500AF154A154B1B6843F046
:1001D000010313601249124B5A68124B13404B60D3
:1001E0000F4A0F4B1B6823F0847323F48033136092
:1001F0000B4A0B4B1B6823F480231360084A084BFF
:100200005B6823F4FE035360054B4FF41F029A60B2
:1002100000F078F8044B4FF000629A6000BF80BD98
:10022000001002400000FFF800ED00E080B485B04F
:1002300000AF0023FB600023BB6000237B602C4BDE
:100240005B6803F00C03FB60FB68042B07D0082BF2
:1002500009D0002B33D1274B274A1A6033E0254BB6
:10026000254A1A602FE0224B5B6803F47013BB60D1
:100270001F4B5B6803F480337B60BB689B0C0233CD
:10028000BB607B68002B06D1BB681C4A02FB03F3F2
:10029000184A136017E0164B5B6803F40033002B19
:1002A00006D0BB68154A02FB03F3124A13600AE04A
:1002B000BB68114A02FB03F30E4A136003E00D4BC7
:1002C0000D4A1A6000BF0A4B5B681B0903F00F035D
:1002D0000B4AD35CDBB2FB60064B1A68FB6822FA60
:1002E00003F3044A136000BF1437BD4680BC704757
:1002F000001002400000002000127A0000093D00BA
:100300000400002080B500AF00F002F800BF80BDFF
:1003100080B483B000AF00237B6000233B603A4A87
:10032000394B1B6843F480331360374B1B6803F46D
:1003300000333B607B6801337B603B68002B03D15B
:100340007B68B3F5A06FF0D12F4B1B6803F400332B
:10035000002B02D001233B6001E000233B603B689F
:10036000012B4BD1294A294B1B6843F01003136022
:10037000264A264B1B6823F003031360234A234BB2
:100380001B6843F0020313601F4A1F4B5B685360F6
:100390001D4A1D4B5B6853601B4A1B4B5B6843F453
:1003A00080635360184A184B5B6823F47C135360D6
:1003B000154A154B5B6843F4E8135360124A124B1D
:1003C0001B6843F08073136000BF0F4B1B6803F082
:1003D0000073002BF9D00C4A0B4B5B6823F003032E
:1003E0005360094A084B5B6843F00203536000BF47
:1003F000054B5B6803F00C03082BF9D100BF0C37E9
:10040000BD4680BC704700BF001002400020024083
:100410001417000800000020580400205C0400208D
:100420007804002080B483B000AF7860054A7B6810
:1004300043F0BF6343F40033D36000BF0C37BD46C5
:1004400080BC704700ED00E080B487B000AF7860FA
:1004500000237B6100233B610F23FB607B68DB781B
:10046000002B3AD0274BDB68DB431B0A03F0070362
:100470007B617B69C3F104033B61FA687B6922FA03
:1004800003F3FB607B685B781A463B6902FA03F36F
:100490007B617B689B781A46FB6813407A6913433B
:1004A0007B617B691B017B61174A7B681B787969DB
:1004B000C9B213440A4683F80023134A7B681B78A9
:1004C0005B09DBB218467B681B7803F01F03012130
:1004D00001FA03F342F820300FE00B497B681B78E8
:1004E0005B09DBB218467B681B7803F01F0301220F
:1004F0009A4000F1200341F8232000BF1C37BD467D
:1005000080BC704700ED00E000E100E080B483B003
:1005100000AF7860396007493B6823F0604323F0FF
:100520007F037A6813438B6000BF0C37BD4680BCE5
:10053000704700BF00ED00E080B483B000AF034619
:100540000A46FB711346BB71BB79002B06D00949E3
:10055000084B1A69FB7913430B6106E00549054B0B
:100560001A69FB79DB4313400B6100BF0C37BD46B2
:1005700080BC704700ED00E080B483B000AF7860CD
:100580007B68042B06D1094A084B1B6843F004031F
:10059000136005E0054A054B1B6823F00403136054
:1005A00000BF0C37BD4680BC704700BF10E000E0C4
:1005B00080B400AF134A134B1B6843F00103136070
:1005C0001049104B5A68104B13404B600D4A0D4BAD
:1005D0001B6823F0847323F480331360094A094BAA
:1005E0001B6823F480231360064A064B5B6823F4E0
:1005F000FE035360034B4FF41F029A6000BFBD46D9
:1006000080BC7047001002400000FFF880B483B047
:1006100000AF7860134A134B1B6823F480331360D8
:10062000104A104B1B6823F4802313607B68B3F5DA
:10063000803F03D0B3F5802F07D00DE0094A094B66
:100640001B6843F48033136006E0064A054B1B68C1
:1006500043F4A023136000BF00BF0C37BD4680BC2D
:10066000704700BF0010024080B582B000AF002389
:100670003B600023FB710023BB71312000F00EFBB7
:100680000346BB713B6801333B603B68B3F5A06F29
:1006900002D0BB79002BF0D0312000F0FFFA0346E6
:1006A000002B02D00123FB7101E00023FB71FB79D9
:1006B00018460837BD4680BD80B485B000AF0346FC
:1006C000FB710023FB600A4B1B68FB60FB6823F097
:1006D000F803FB60FB79DB00FA681343FB60044A14
:1006E000FB68136000BF1437BD4680BC704700BF75
:1006F0000010024080B483B000AF0346FB71044A8F
:10070000FB79136000BF0C37BD4680BC704700BF4B
:100710000000424280B485B000AF786039600023A9
:10072000FB600A4B5B68FB60FB6823F47C13FB6097
:100730007A683B681343FA681343FB60034AFB681B
:10074000536000BF1437BD4680BC704700100240A4
:1007500080B483B000AF0346FB71044AFB79136099
:1007600000BF0C37BD4680BC704700BF60004242EE
:1007700080B485B000AF78600023FB60094B5B68F4
:10078000FB60FB6823F00303FB60FA687B6813439C
:10079000FB60044AFB68536000BF1437BD4680BC51
:1007A000704700BF0010024080B400AF044B5B688C
:1007B000DBB203F00C03DBB21846BD4680BC7047C9
:1007C0000010024080B485B000AF78600023FB6069
:1007D000094B5B68FB60FB6823F0F003FB60FA6881
:1007E0007B681343FB60044AFB68536000BF143707
:1007F000BD4680BC704700BF0010024080B485B089
:1008000000AF78600023FB60094B5B68FB60FB680E
:1008100023F4E063FB60FA687B681343FB60044ADF
:10082000FB68536000BF1437BD4680BC704700BFF3
:100830000010024080B485B000AF78600023FB60F8
:10084000094B5B68FB60FB6823F46053FB607B68CB
:10085000DB00FA681343FB60034AFB68536000BF88
:100860001437BD4680BC70470010024080B483B08E
:1008700000AF03460A46FB711346BB71BB79002BE0
:1008800008D00C490B4B1B78DAB2FB791343DBB26F
:100890000B7009E00749074B1B78DAB2FB79DB43A1
:1008A000DBB21340DBB20B7000BF0C37BD4680BC1F
:1008B000704700BF0910024080B483B000AF786079
:1008C000034A7B68136000BF0C37BD4680BC70478D
:1008D000D800424280B485B000AF78600023FB604E
:1008E000094B5B68FB60FB6823F44043FB60FA68DC
:1008F0007B681343FB60044AFB68536000BF1437F6
:10090000BD4680BC704700BF0010024080B483B079
:1009100000AF0346FB710C4B00221A700A4B0022F9
:100920001A70FB79012B02D0042B04D007E0064B90
:1009300001221A7003E0044B05221A7000BF00BFA9
:100940000C37BD4680BC70472010024080B483B095
:1009500000AF0346FB71044AFB79136000BF0C37FC
:10096000BD4680BC704700BF8004424280B483B063
:1009700000AF78600549054B1A6A7B6813430B6228
:1009800000BF0C37BD4680BC704700BF001002405E
:1009900080B483B000AF0346FB71044AFB79136057
:1009A00000BF0C37BD4680BC704700BF3C044242CC
:1009B00080B487B000AF786000237B6100233B6187
:1009C0000023FB600023BB604C4B5B6803F00C030F
:1009D0007B617B69042B07D0082B09D0002B33D116
:1009E0007B68474A1A6033E07B68454A1A602FE00B
:1009F000424B5B6803F470133B61404B5B6803F44C
:100A00008033FB603B699B0C02333B61FB68002B2E
:100A100006D13B693B4A02FB03F27B681A6017E090
:100A2000364B5B6803F40033002B06D03B69354A34
:100A300002FB03F27B681A600AE03B69304A02FB62
:100A400003F27B681A6003E07B682D4A1A6000BFDE
:100A50002A4B5B6803F0F0037B617B691B097B61B8
:100A6000294A7B6913441B78DBB2BB607B681A6838
:100A7000BB68DA407B685A60204B5B6803F4E06334
:100A80007B617B691B0A7B611F4A7B6913441B786E
:100A9000DBB2BB607B685A68BB68DA407B689A60EF
:100AA000164B5B6803F460537B617B69DB0A7B61F7
:100AB000154A7B6913441B78DBB2BB607B685A68BC
:100AC000BB68DA407B68DA600C4B5B6803F4404338
:100AD0007B617B699B0B7B610C4A7B6913441B78B0
:100AE000DBB2BB607B68DA68BB68B2FBF3F27B68A1
:100AF0001A6100BF1C37BD4680BC70470010024021
:100B000000127A0000093D0014000020240000209B
:100B100080B483B000AF78600B46FB70FB78002B8D
:100B200006D00949084B5A697B6813434B6106E0BC
:100B30000549054B5A697B68DB4313404B6100BF95
:100B40000C37BD4680BC70470010024080B483B0B3
:100B500000AF78600B46FB70FB78002B06D009498C
:100B6000084B9A697B6813438B6106E00549054B86
:100B70009A697B68DB4313408B6100BF0C37BD462D
:100B800080BC70470010024080B483B000AF786032
:100B90000B46FB70FB78002B06D00949084BDA693D
:100BA0007B681343CB6106E00549054BDA697B6836
:100BB000DB431340CB6100BF0C37BD4680BC7047A0
:100BC0000010024080B483B000AF78600B46FB7029
:100BD000FB78002B06D00949084BDA687B68134381
:100BE000CB6006E00549054BDA687B68DB431340C0
:100BF000CB6000BF0C37BD4680BC70470010024080
:100C000080B483B000AF78600B46FB70FB78002B9C
:100C100006D00949084B1A697B6813430B6106E04B
:100C20000549054B1A697B68DB4313400B6100BF24
:100C30000C37BD4680BC70470010024080B483B0C2
:100C400000AF0346FB71044AFB79136000BF0C3709
:100C5000BD4680BC704700BF4004424280B483B0B0
:100C600000AF0346FB71044AFB79136000BF0C37E9
:100C7000BD4680BC704700BF4C00424280B483B088
:100C800000AF0346FB71044AFB79137000BF0C37B9
:100C9000BD4680BC704700BF0710024080B487B0DB
:100CA00000AF0346FB710023FB6000237B61002340
:100CB000FB74FB795B09DBB2FB60FB68012B03D1A2
:100CC000124B1B687B6109E0FB68022B03D10F4BC1
:100CD0001B6A7B6102E00D4B5B6A7B61FB7903F071
:100CE0001F03FB607A69FB6822FA03F303F0010338
:100CF000002B02D00123FB7401E00023FB74FB7C7A
:100D000018461C37BD4680BC704700BF001002402B
:100D100080B400AF044A044B5B6A43F080735362B3
:100D200000BFBD4680BC70470010024080B485B053
:100D300000AF0346FB710023FB73084B9A68FB79F5
:100D40001340002B02D00123FB7301E00023FB734F
:100D5000FB7B18461437BD4680BC7047001002402C
:100D600080B483B000AF0346FB71044AFB79137073
:100D700000BF0C37BD4680BC704700BF0A10024060
:100D800080B582B000AF78607B682F4A934208D16B
:100D900001210420FFF716FF00210420FFF712FFB6
:100DA0004EE07B68294A934208D101210820FFF7D1
:100DB00009FF00210820FFF705FF41E07B68244A76
:100DC000934208D101211020FFF7FCFE00211020E2
:100DD000FFF7F8FE34E07B681E4A934208D10121F8
:100DE0002020FFF7EFFE00212020FFF7EBFE27E099
:100DF0007B68194A934208D101214020FFF7E2FEA7
:100E000000214020FFF7DEFE1AE07B68134A934280
:100E100008D101218020FFF7D5FE00218020FFF7B7
:100E2000D1FE0DE07B680E4A934209D101214FF4B7
:100E30008070FFF7C7FE00214FF48070FFF7C2FEFD
:100E400000BF0837BD4680BD00080140000C0140CE
:100E5000001001400014014000180140001C014036
:100E60000020014080B500AF01210120FFF7AAFE5C
:100E700000210120FFF7A6FE00BF80BD80B489B02D
:100E800000AF786039600023FB6100233B610023E1
:100E9000BB610023FB6000237B610023BB603B68D8
:100EA000DB7803F00F03FB613B68DB7803F0100392
:100EB000002B05D03B689B781A46FB691343FB6106
:100EC0003B681B88DBB2002B44D07B681B687B61CE
:100ED0000023BB6138E00122BB6902FA03F3FB6027
:100EE0003B681B881A46FB6813403B613A69FB6804
:100EF0009A4226D1BB699B00FB600F22FB6802FA75
:100F000003F3BB60BB68DB437A6913407B61FA691A
:100F1000FB6802FA03F37A6913437B613B68DB7871
:100F2000282B05D10122BB699A407B685A6108E0F1
:100F30003B68DB78482B04D10122BB699A407B686F
:100F40001A61BB690133BB61BB69072BC3D97B68DD
:100F50007A691A603B681B88FF2B46D97B685B68FF
:100F60007B610023BB613AE0BB690833012202FACE
:100F700003F3FB603B681B881A46FB6813403B6128
:100F80003A69FB689A4227D1BB699B00FB600F223C
:100F9000FB6802FA03F3BB60BB68DB437A6913406A
:100FA0007B61FA69FB6802FA03F37A6913437B6198
:100FB0003B68DB78282B05D1BB69083301229A40B6
:100FC0007B685A613B68DB78482B05D1BB690833E5
:100FD00001229A407B681A61BB690133BB61BB691E
:100FE000072BC1D97B687A695A6000BF2437BD4698
:100FF00080BC704780B483B000AF78607B684FF6E8
:10100000FF721A807B6802229A707B680422DA7071
:1010100000BF0C37BD4680BC704780B485B000AFC0
:1010200078600B467B800023FB737B689A687B8823
:101030001340002B02D00123FB7301E00023FB735C
:10104000FB7B18461437BD4680BC704780B483B024
:1010500000AF78607B689B689BB218460C37BD4632
:1010600080BC704780B485B000AF78600B467B8051
:101070000023FB737B68DA687B881340002B02D067
:101080000123FB7301E00023FB73FB7B184614373D
:10109000BD4680BC704780B483B000AF78607B6889
:1010A000DB689BB218460C37BD4680BC704780B4E5
:1010B00083B000AF78600B467B807A887B681A61CA
:1010C00000BF0C37BD4680BC704780B483B000AF12
:1010D00078600B467B807A887B685A6100BF0C374A
:1010E000BD4680BC704780B483B000AF78600B46CB
:1010F0007B8013467B707B78002B03D07A887B68DB
:101100001A6102E07A887B685A6100BF0C37BD46DD
:1011100080BC704780B483B000AF78600B467B80A2
:101120007A887B68DA6000BF0C37BD4680BC7047A8
:1011300080B485B000AF78600B467B804FF480337D
:10114000FB607B88FA681343FB607B68FA689A61EE
:101150007A887B689A617B68FA689A617B689B6988
:10116000FB607B689B69FB6000BF1437BD4680BC99
:10117000704780B485B000AF03460A46FB71134642
:10118000BB710023FB600C4B1B68FB60FA684FF6D9
:1011900080731340FB60FB791B01FA681343FB600B
:1011A000BB79FA681343FB60034AFB68136000BF16
:1011B0001437BD4680BC70470000014080B483B046
:1011C00000AF0346FB71044AFB79136000BF0C3784
:1011D000BD4680BC704700BF1C00204280B487B071
:1011E00000AF78600B46FB7000233B610023FB607F
:1011F00000237B610023BB607B68002B03DA2E4B4E
:10120000DB697B6102E02C4B5B687B617B681B0CBC
:1012100003F00F03BB607B689BB23B617B6803F408
:101220004013B3F5401F0AD17B6923F070637B61E3
:10123000214A214B5B6823F07063536021E07B6897
:1012400003F48013002B0ED00322BB6802FA03F3D1
:10125000FB60FB68DB437A6913407B617B6943F089
:1012600070637B610DE07B685B0D1B013A6902FADC
:1012700003F3DB437A6913407B617B6943F070635E
:101280007B61FB78002B08D07B685B0D1B013A6902
:1012900002FA03F37A6913437B617B68002B03DA5C
:1012A000054A7B69D36102E0034A7B69536000BF52
:1012B0001C37BD4680BC70470000014090B484B02C
:1012C00000AF03460A46FB711346BB710023FB6067
:1012D000BB7903F003039B000F2202FA03F3FB60C8
:1012E0001649BB799B08DBB21846144ABB799B08A8
:1012F000DBB2023352F82320FB68DB431A40831C25
:1013000041F823200D48BB799B08DBB21C460B4AF1
:10131000BB799B08DBB2023352F82320F979BB7901
:1013200003F003039B0001FA03F31A43A31C40F8E4
:10133000232000BF1037BD4690BC7047000001401D
:1013400080B483B000AF7860034A7B68136000BF4D
:101350000C37BD4680BC7047DC00204210B5054C00
:10136000227832B9044B13B10448AFF30080012353
:10137000237010BD5C04002000000000FC16000873
:10138000074B10B51BB107490748AFF3008007486A
:10139000036823B1064B13B1BDE81040184710BDD8
:1013A0000000000060040020FC1600085804002023
:1013B00000000000002103E00B4B5B584350043158
:1013C0000A480B4B42189A42F6D30A4A02E000231D
:1013D00042F8043B084B9A42F9D3FEF7F3FE00F0C3
:1013E0003FF8FEF7C7FE7047141700080000002002
:1013F000580400205C04002078040020FEE7000070
:10140000002301461A46184600F0A0B808B500218E
:10141000044600F0FBF8044B1868C36B03B198470F
:10142000204600F06BF900BFE016000838B50A4C02
:101430000A4D641BA4100AD004F18043013B05EB64
:101440008305013C55F804399847002CF9D1BDE8D3
:10145000384000F04DB900BF1417000810170008FD
:1014600070B50F4E0F4D761BB61018BF002405D077
:10147000013455F8043B9847A642F9D10A4E0B4D6A
:1014800000F030F9761BB61018BF002406D00134E6
:1014900055F8043B9847A642F9D170BD70BD00BF16
:1014A0000817000808170008101700080817000898
:1014B00070B4860746D0541E002A41D0CAB20346F3
:1014C00002E014F1FF343BD303F8012B9D07F8D160
:1014D000032C2ED9CDB245EA05250F2C45EA05454A
:1014E00019D9264603F11002103E0F2E42F8105C67
:1014F00042F80C5C42F8085C42F8045C02F110020D
:10150000F2D8A4F1100222F00F0204F00F041032FE
:10151000032C13440DD91E462246043A032A46F8EA
:10152000045BFAD8221F22F003020432134404F0B1
:1015300003042CB1C9B21C4403F8011B9C42FBD12B
:1015400070BC704714460346C2E700BF2DE9F04760
:10155000274C074626688846D6F848419246994661
:10156000002C3CD065681F2D1ADC05F1010E7FB1FF
:10157000012004EB8503C3F888A0D4F8881100FA91
:1015800005F21143022FC4F88811C3F8089120D046
:101590000235C4F804E0002044F82580BDE8F08757
:1015A000144B0BB34FF4C870AFF300800446D8B1AE
:1015B0000020D6F848314FF0010E606023600546E8
:1015C000C6F84841C4F88801C4F88C01002FDFD068
:1015D000CEE7D4F88C311A43C4F88C21D8E706F54D
:1015E000A674C6F84841BDE74FF0FF30BDE8F0876C
:1015F000E016000800000000024B13B10248FFF79C
:10160000FFBE7047000000002D1400082DE9F04FC8
:101610000E46314B85B01B680190029303F5A4730D
:101620000393029BD3F8487137B3DDF80CA04FF059
:101630000109D3467C68651E0ED44FF000080134C2
:1016400007EB8404DEB1D4F800319E4217D0013D8F
:101650006B1CA4F10404F5D1204B6BB17B68002B0B
:1016600035D13B6843B13846CBF80030AFF300804A
:10167000DBF80070002FDDD105B0BDE8F08F7B688E
:101680002268013BAB420CBF7D60C4F80080002A99
:10169000DDD0D7F8881109FA05F30B42D7F804A07A
:1016A0000FD0D7F88C110B420DD1D4F880100198CF
:1016B00090477B685345B4D1DBF80030BB42C6D0BD
:1016C000AFE79047F5E7D4F880009047F1E7BB46D5
:1016D0003F68002FAED1CFE7E01600080000000001
:1016E00030000020F8B500BFF8BC08BC9E4670472B
:1016F000F8B500BFF8BC08BC9E467047000000006B
:101700000CEAFF7F01000000F915000881130008B2
:101710005D13000800A24A04000000000000000061
:101720000102030406070809000000000102030487
:10173000010203040607080902040608000000006D
:1017400030000020000000001C0300208403002063
:10175000EC0300200000000000000000000000007A
:101760000000000000000000000000000000000079
:101770000000000000000000000000000000000069
:101780000000000000000000000000000000000059
:101790000000000000000000000000000000000049
:1017A0000000000000000000000000000000000039
:1017B0000000000000000000000000000000000029
:1017C0000000000000000000000000000000000019
:1017D0000000000000000000000000000000000009
:1017E00000000000000000000000000001000000F8
:1017F000000000000E33CDAB34126DE6ECDE0500C8
:101800000B000000000000000000000000000000CD
:1018100000000000000000000000000000000000C8
:1018200000000000000000000000000000000000B8
:1018300000000000000000000000000000000000A8
:101840000000000000000000000000000000000098
:00000001FF
